{
  "contractName": "Ballot",
  "abi": [
    {
      "constant": true,
      "inputs": [],
      "name": "voteToSamePersonLimit",
      "outputs": [
        {
          "name": "",
          "type": "uint256"
        }
      ],
      "payable": false,
      "stateMutability": "view",
      "type": "function"
    },
    {
      "constant": true,
      "inputs": [
        {
          "name": "",
          "type": "uint256"
        }
      ],
      "name": "winner",
      "outputs": [
        {
          "name": "",
          "type": "bytes32"
        }
      ],
      "payable": false,
      "stateMutability": "view",
      "type": "function"
    },
    {
      "constant": true,
      "inputs": [
        {
          "name": "",
          "type": "uint256"
        }
      ],
      "name": "voterList",
      "outputs": [
        {
          "name": "",
          "type": "address"
        }
      ],
      "payable": false,
      "stateMutability": "view",
      "type": "function"
    },
    {
      "constant": true,
      "inputs": [
        {
          "name": "",
          "type": "bytes32"
        }
      ],
      "name": "candidateResult",
      "outputs": [
        {
          "name": "",
          "type": "uint256"
        }
      ],
      "payable": false,
      "stateMutability": "view",
      "type": "function"
    },
    {
      "constant": true,
      "inputs": [
        {
          "name": "",
          "type": "address"
        }
      ],
      "name": "voterInfo",
      "outputs": [
        {
          "name": "addr",
          "type": "address"
        },
        {
          "name": "ticketBalanced",
          "type": "uint256"
        }
      ],
      "payable": false,
      "stateMutability": "view",
      "type": "function"
    },
    {
      "constant": true,
      "inputs": [],
      "name": "totalTickets",
      "outputs": [
        {
          "name": "",
          "type": "uint256"
        }
      ],
      "payable": false,
      "stateMutability": "view",
      "type": "function"
    },
    {
      "constant": true,
      "inputs": [
        {
          "name": "",
          "type": "uint256"
        }
      ],
      "name": "candidatesList",
      "outputs": [
        {
          "name": "",
          "type": "bytes32"
        }
      ],
      "payable": false,
      "stateMutability": "view",
      "type": "function"
    },
    {
      "constant": true,
      "inputs": [],
      "name": "ticketPerPerson",
      "outputs": [
        {
          "name": "",
          "type": "uint256"
        }
      ],
      "payable": false,
      "stateMutability": "view",
      "type": "function"
    },
    {
      "constant": true,
      "inputs": [],
      "name": "balanceTickets",
      "outputs": [
        {
          "name": "",
          "type": "uint256"
        }
      ],
      "payable": false,
      "stateMutability": "view",
      "type": "function"
    },
    {
      "inputs": [],
      "payable": false,
      "stateMutability": "nonpayable",
      "type": "constructor"
    },
    {
      "constant": false,
      "inputs": [
        {
          "name": "_totalTickets",
          "type": "uint256"
        }
      ],
      "name": "setTotalTickets",
      "outputs": [],
      "payable": false,
      "stateMutability": "nonpayable",
      "type": "function"
    },
    {
      "constant": false,
      "inputs": [
        {
          "name": "_ticketPerPerson",
          "type": "uint256"
        }
      ],
      "name": "setTicketPerPerson",
      "outputs": [],
      "payable": false,
      "stateMutability": "nonpayable",
      "type": "function"
    },
    {
      "constant": false,
      "inputs": [
        {
          "name": "_voteToSamePersonLimit",
          "type": "uint256"
        }
      ],
      "name": "setVoteToSamePersonLimit",
      "outputs": [],
      "payable": false,
      "stateMutability": "nonpayable",
      "type": "function"
    },
    {
      "constant": false,
      "inputs": [
        {
          "name": "_newOwner",
          "type": "address"
        }
      ],
      "name": "transferOwnership",
      "outputs": [],
      "payable": false,
      "stateMutability": "nonpayable",
      "type": "function"
    },
    {
      "constant": false,
      "inputs": [
        {
          "name": "_addr",
          "type": "address"
        }
      ],
      "name": "addVoter",
      "outputs": [],
      "payable": false,
      "stateMutability": "nonpayable",
      "type": "function"
    },
    {
      "constant": false,
      "inputs": [
        {
          "name": "_candidateName",
          "type": "bytes32"
        }
      ],
      "name": "addCandidate",
      "outputs": [],
      "payable": false,
      "stateMutability": "nonpayable",
      "type": "function"
    },
    {
      "constant": true,
      "inputs": [],
      "name": "getOwnerAddr",
      "outputs": [
        {
          "name": "",
          "type": "address"
        }
      ],
      "payable": false,
      "stateMutability": "view",
      "type": "function"
    },
    {
      "constant": true,
      "inputs": [
        {
          "name": "_candidateName",
          "type": "bytes32"
        }
      ],
      "name": "totalTicketsOf",
      "outputs": [
        {
          "name": "",
          "type": "uint256"
        }
      ],
      "payable": false,
      "stateMutability": "view",
      "type": "function"
    },
    {
      "constant": true,
      "inputs": [],
      "name": "getAllCandidates",
      "outputs": [
        {
          "name": "",
          "type": "bytes32[]"
        }
      ],
      "payable": false,
      "stateMutability": "view",
      "type": "function"
    },
    {
      "constant": true,
      "inputs": [],
      "name": "getAllVoters",
      "outputs": [
        {
          "name": "",
          "type": "address[]"
        }
      ],
      "payable": false,
      "stateMutability": "view",
      "type": "function"
    },
    {
      "constant": true,
      "inputs": [
        {
          "name": "_addr",
          "type": "address"
        }
      ],
      "name": "getVoter",
      "outputs": [
        {
          "name": "",
          "type": "uint256"
        },
        {
          "name": "",
          "type": "uint256[]"
        }
      ],
      "payable": false,
      "stateMutability": "view",
      "type": "function"
    },
    {
      "constant": false,
      "inputs": [],
      "name": "getWinner",
      "outputs": [
        {
          "name": "",
          "type": "bytes32[]"
        }
      ],
      "payable": false,
      "stateMutability": "nonpayable",
      "type": "function"
    },
    {
      "constant": true,
      "inputs": [],
      "name": "getVoterNum",
      "outputs": [
        {
          "name": "",
          "type": "uint256"
        }
      ],
      "payable": false,
      "stateMutability": "view",
      "type": "function"
    },
    {
      "constant": true,
      "inputs": [],
      "name": "getCandidateNum",
      "outputs": [
        {
          "name": "",
          "type": "uint256"
        }
      ],
      "payable": false,
      "stateMutability": "view",
      "type": "function"
    },
    {
      "constant": false,
      "inputs": [
        {
          "name": "_candidateName",
          "type": "bytes32"
        }
      ],
      "name": "voteFor",
      "outputs": [],
      "payable": false,
      "stateMutability": "nonpayable",
      "type": "function"
    },
    {
      "constant": true,
      "inputs": [],
      "name": "winCounts",
      "outputs": [
        {
          "name": "",
          "type": "uint256"
        }
      ],
      "payable": false,
      "stateMutability": "view",
      "type": "function"
    }
  ],
  "bytecode": "0x608060405234801561001057600080fd5b50600160068190555033600260006101000a81548173ffffffffffffffffffffffffffffffffffffffff021916908373ffffffffffffffffffffffffffffffffffffffff16021790555060646007819055506064600881905550600160098190555061132b806100816000396000f300608060405260043610610149576000357c0100000000000000000000000000000000000000000000000000000000900463ffffffff16806305d83ea01461014e5780631cbeae5e14610179578063230d6ed8146101c25780632e6997fe146101f3578063351549861461025f57806335bbe70e1461029057806350e2e8af146102fc578063617936521461036957806377f3d104146103ae5780637ab1ff0c146103d95780637b041b52146104065780638e7ea5b21461044b578063ae890c0a146104b7578063c5c0b781146104e4578063cdf58d351461050f578063d4f50f9814610599578063dd11247e14610638578063df2d5ec714610663578063e0c2a9cf146106ac578063e6704723146106d7578063f135d77f1461072e578063f2f4175c14610759578063f2fde38b14610784578063f4ab9adf146107c7578063fc5c39021461080a575b600080fd5b34801561015a57600080fd5b50610163610837565b6040518082815260200191505060405180910390f35b34801561018557600080fd5b506101a46004803603810190808035906020019092919050505061083d565b60405180826000191660001916815260200191505060405180910390f35b3480156101ce57600080fd5b506101f16004803603810190808035600019169060200190929190505050610860565b005b3480156101ff57600080fd5b506102086108ec565b6040518080602001828103825283818151815260200191508051906020019060200280838360005b8381101561024b578082015181840152602081019050610230565b505050509050019250505060405180910390f35b34801561026b57600080fd5b5061028e6004803603810190808035600019169060200190929190505050610948565b005b34801561029c57600080fd5b506102a5610b48565b6040518080602001828103825283818151815260200191508051906020019060200280838360005b838110156102e85780820151818401526020810190506102cd565b505050509050019250505060405180910390f35b34801561030857600080fd5b5061032760048036038101908080359060200190929190505050610bd6565b604051808273ffffffffffffffffffffffffffffffffffffffff1673ffffffffffffffffffffffffffffffffffffffff16815260200191505060405180910390f35b34801561037557600080fd5b506103986004803603810190808035600019169060200190929190505050610c14565b6040518082815260200191505060405180910390f35b3480156103ba57600080fd5b506103c3610c2c565b6040518082815260200191505060405180910390f35b3480156103e557600080fd5b5061040460048036038101908080359060200190929190505050610c39565b005b34801561041257600080fd5b506104356004803603810190808035600019169060200190929190505050610c43565b6040518082815260200191505060405180910390f35b34801561045757600080fd5b50610460610c68565b6040518080602001828103825283818151815260200191508051906020019060200280838360005b838110156104a3578082015181840152602081019050610488565b505050509050019250505060405180910390f35b3480156104c357600080fd5b506104e260048036038101908080359060200190929190505050610ccc565b005b3480156104f057600080fd5b506104f9610cd6565b6040518082815260200191505060405180910390f35b34801561051b57600080fd5b50610550600480360381019080803573ffffffffffffffffffffffffffffffffffffffff169060200190929190505050610d79565b604051808373ffffffffffffffffffffffffffffffffffffffff1673ffffffffffffffffffffffffffffffffffffffff1681526020018281526020019250505060405180910390f35b3480156105a557600080fd5b506105da600480360381019080803573ffffffffffffffffffffffffffffffffffffffff169060200190929190505050610dbd565b6040518083815260200180602001828103825283818151815260200191508051906020019060200280838360005b83811015610623578082015181840152602081019050610608565b50505050905001935050505060405180910390f35b34801561064457600080fd5b5061064d610e9f565b6040518082815260200191505060405180910390f35b34801561066f57600080fd5b5061068e60048036038101908080359060200190929190505050610ea5565b60405180826000191660001916815260200191505060405180910390f35b3480156106b857600080fd5b506106c1610ec8565b6040518082815260200191505060405180910390f35b3480156106e357600080fd5b506106ec610ece565b604051808273ffffffffffffffffffffffffffffffffffffffff1673ffffffffffffffffffffffffffffffffffffffff16815260200191505060405180910390f35b34801561073a57600080fd5b50610743610ef8565b6040518082815260200191505060405180910390f35b34801561076557600080fd5b5061076e610f05565b6040518082815260200191505060405180910390f35b34801561079057600080fd5b506107c5600480360381019080803573ffffffffffffffffffffffffffffffffffffffff169060200190929190505050610f0b565b005b3480156107d357600080fd5b50610808600480360381019080803573ffffffffffffffffffffffffffffffffffffffff169060200190929190505050610f4f565b005b34801561081657600080fd5b50610835600480360381019080803590602001909291905050506110ff565b005b60095481565b60058181548110151561084c57fe5b906000526020600020016000915090505481565b7fffffffffffffffffffffffffffffffffffffffffffffffffffffffffffffffff61088a82611109565b14151561089657600080fd5b600381908060018154018082558091505090600182039060005260206000200160009091929091909150906000191690555060006001600083600019166000191681526020019081526020016000208190555050565b6060600380548060200260200160405190810160405280929190818152602001828054801561093e57602002820191906000526020600020905b81546000191681526020019060010190808311610926575b5050505050905090565b60008061095483611109565b91507fffffffffffffffffffffffffffffffffffffffffffffffffffffffffffffffff821415151561098557600080fd5b60008060003373ffffffffffffffffffffffffffffffffffffffff1673ffffffffffffffffffffffffffffffffffffffff168152602001908152602001600020600201805490501415610a5e57600090505b600380549050811015610a5d576000803373ffffffffffffffffffffffffffffffffffffffff1673ffffffffffffffffffffffffffffffffffffffff1681526020019081526020016000206002016000908060018154018082558091505090600182039060005260206000200160009091929091909150555080806001019150506109d7565b5b6000803373ffffffffffffffffffffffffffffffffffffffff1673ffffffffffffffffffffffffffffffffffffffff1681526020019081526020016000206001016000815480929190600190039190505550600160008460001916600019168152602001908152602001600020600081548092919060010191905055506000803373ffffffffffffffffffffffffffffffffffffffff1673ffffffffffffffffffffffffffffffffffffffff16815260200190815260200160002060020182815481101515610b2957fe5b9060005260206000200160008154809291906001019190505550505050565b60606004805480602002602001604051908101604052809291908181526020018280548015610bcc57602002820191906000526020600020905b8160009054906101000a900473ffffffffffffffffffffffffffffffffffffffff1673ffffffffffffffffffffffffffffffffffffffff1681526020019060010190808311610b82575b5050505050905090565b600481815481101515610be557fe5b906000526020600020016000915054906101000a900473ffffffffffffffffffffffffffffffffffffffff1681565b60016020528060005260406000206000915090505481565b6000600480549050905090565b8060098190555050565b6000600160008360001916600019168152602001908152602001600020549050919050565b6060610c72611186565b6005805480602002602001604051908101604052809291908181526020018280548015610cc257602002820191906000526020600020905b81546000191681526020019060010190808311610caa575b5050505050905090565b8060078190555050565b6000806000809150600090505b600380549050811015610d71578160016000600384815481101515610d0457fe5b906000526020600020015460001916600019168152602001908152602001600020541115610d645760016000600383815481101515610d3f57fe5b9060005260206000200154600019166000191681526020019081526020016000205491505b8080600101915050610ce3565b819250505090565b60006020528060005260406000206000915090508060000160009054906101000a900473ffffffffffffffffffffffffffffffffffffffff16908060010154905082565b600060606000808473ffffffffffffffffffffffffffffffffffffffff1673ffffffffffffffffffffffffffffffffffffffff168152602001908152602001600020600101546000808573ffffffffffffffffffffffffffffffffffffffff1673ffffffffffffffffffffffffffffffffffffffff16815260200190815260200160002060020180805480602002602001604051908101604052809291908181526020018280548015610e8f57602002820191906000526020600020905b815481526020019060010190808311610e7b575b5050505050905091509150915091565b60075481565b600381815481101515610eb457fe5b906000526020600020016000915090505481565b60065481565b6000600260009054906101000a900473ffffffffffffffffffffffffffffffffffffffff16905090565b6000600380549050905090565b60085481565b80600260006101000a81548173ffffffffffffffffffffffffffffffffffffffff021916908373ffffffffffffffffffffffffffffffffffffffff16021790555050565b7fffffffffffffffffffffffffffffffffffffffffffffffffffffffffffffffff610f798261123e565b141515610f8557600080fd5b60048190806001815401808255809150509060018203906000526020600020016000909192909190916101000a81548173ffffffffffffffffffffffffffffffffffffffff021916908373ffffffffffffffffffffffffffffffffffffffff16021790555050806000808373ffffffffffffffffffffffffffffffffffffffff1673ffffffffffffffffffffffffffffffffffffffff16815260200190815260200160002060000160006101000a81548173ffffffffffffffffffffffffffffffffffffffff021916908373ffffffffffffffffffffffffffffffffffffffff16021790555060065460085410156110a257600a60065402600760008282540192505081905550600a600654026008600082825401925050819055505b6006546000808373ffffffffffffffffffffffffffffffffffffffff1673ffffffffffffffffffffffffffffffffffffffff1681526020019081526020016000206001018190555060065460086000828254039250508190555050565b8060068190555050565b600080600090505b60038054905081101561115c57826000191660038281548110151561113257fe5b906000526020600020015460001916141561114f57809150611180565b8080600101915050611111565b7fffffffffffffffffffffffffffffffffffffffffffffffffffffffffffffffff91505b50919050565b600080611191610cd6565b9150600090505b60038054905081101561123a5781600160006003848154811015156111b957fe5b90600052602060002001546000191660001916815260200190815260200160002054141561122d5760056003828154811015156111f257fe5b906000526020600020015490806001815401808255809150509060018203906000526020600020016000909192909190915090600019169055505b8080600101915050611198565b5050565b600080600090505b6004805490508110156112d5578273ffffffffffffffffffffffffffffffffffffffff1660048281548110151561127957fe5b9060005260206000200160009054906101000a900473ffffffffffffffffffffffffffffffffffffffff1673ffffffffffffffffffffffffffffffffffffffff1614156112c8578091506112f9565b8080600101915050611246565b7fffffffffffffffffffffffffffffffffffffffffffffffffffffffffffffffff91505b509190505600a165627a7a72305820122e7cc1d8231fde44046d9281b8d4df949c098ff7430811e11ed3ed637c7b3a0029",
  "source": "pragma solidity ^0.4.23;\n\n/// @title Ballot System\n/// @author Linwh\n/// @notice The contract of ballot system\ncontract Ballot {\n    \n    // In this system, we save the voter's info as follows\n    struct Voter {\n        address addr;\n        uint ticketBalanced;\n        uint[] ticketVotedForCandidate;\n    }\n    \n    // Two mapping for voter and candidate\n    mapping(address => Voter) public voterInfo;\n    mapping(bytes32 => uint) public candidateResult;\n    \n    // other variables in the contract\n    address private ownerAddr;\n    bytes32[] public candidatesList;\n    address[] public voterList;\n    bytes32[] public winner;\n    uint public ticketPerPerson;\n    uint public totalTickets;\n    uint public balanceTickets;\n    uint public voteToSamePersonLimit;\n    \n    // modifier to limit the user\n    // modifier onlyOwner() {\n    //     require(msg.sender == ownerAddr);\n    //     _;\n    // }\n    \n    constructor () public {\n        ticketPerPerson = 1;\n        ownerAddr = msg.sender;\n        totalTickets = 100;\n        balanceTickets = 100;\n        voteToSamePersonLimit = 1;\n    }\n    \n    // owner authority\n    \n    /// @dev A function to set totalTickets\n    function setTotalTickets(uint _totalTickets) public {\n        totalTickets = _totalTickets;\n    }\n    \n    /// @dev A funtion to set ticketPerPerson\n    function setTicketPerPerson(uint _ticketPerPerson) public {\n        ticketPerPerson = _ticketPerPerson;\n    }\n    \n    /// @dev A function to set voteToSamePersonLimit\n    function setVoteToSamePersonLimit(uint _voteToSamePersonLimit) public {\n        voteToSamePersonLimit = _voteToSamePersonLimit;\n    }\n    \n    /// @dev A function to transfer the ownership to others\n    function transferOwnership(address _newOwner) public {\n        ownerAddr = _newOwner;\n    }\n    \n    /// @dev A function to give voting right to address\n    function addVoter(address _addr) public {\n        // prevent from the same\n        require(_indexOfVoter(_addr) == uint(-1));\n        voterList.push(_addr);\n        voterInfo[_addr].addr = _addr;\n        if (balanceTickets < ticketPerPerson) {\n            totalTickets += ticketPerPerson*10;\n            balanceTickets += ticketPerPerson*10;\n        }\n        voterInfo[_addr].ticketBalanced = ticketPerPerson;\n        balanceTickets -= ticketPerPerson;\n    }\n    \n    /// @dev A function to add new candidates\n    function addCandidate(bytes32 _candidateName) public {\n        // prevent from the same\n        require(_indexOfCandidate(_candidateName) == uint(-1));\n        candidatesList.push(_candidateName);\n        candidateResult[_candidateName] = 0;\n    }\n    \n    // basic function\n    \n    /// @dev A function to get the owner address\n    function getOwnerAddr() public view returns (address){\n        return ownerAddr;\n    }\n\n    /// @dev A function to get the tickets of the candidate\n    function totalTicketsOf(bytes32 _candidateName) public view returns (uint) {\n        return candidateResult[_candidateName];\n    }\n    \n    /// @dev A function to get all candidates\n    function getAllCandidates() public view returns (bytes32[]) {\n        return candidatesList;\n    }\n    \n    /// @dev A function to get all voters \n    function getAllVoters() public view returns (address[]) {\n        return voterList;\n    }\n    \n    /// @dev A function to get Voter Info\n    function getVoter(address _addr) public view returns (uint, uint[]) {\n        return (voterInfo[_addr].ticketBalanced, voterInfo[_addr].ticketVotedForCandidate);\n    }\n    \n    /// @dev A function to get Winner\n    function getWinner() public returns (bytes32[]) {\n        winCandidate();\n        return winner;\n    }\n    \n    /// @dev A function to get the number of voter\n    function getVoterNum() public view returns (uint) {\n        return voterList.length;\n    }\n    \n    /// @dev A function to get the number of candidate\n    function getCandidateNum() public view returns (uint) {\n        return candidatesList.length;\n    }\n    \n    /// @dev A function to vote for the candidates\n    function voteFor(bytes32 _candidateName) public {\n        uint index = _indexOfCandidate(_candidateName);\n        require(index != uint(-1));\n        //require(_indexOfVoter(msg.sender) != uint(-1));\n        //require(voterInfo[msg.sender].ticketBalanced >= uint(1));\n        if (voterInfo[msg.sender].ticketVotedForCandidate.length == 0) {\n            for (uint i = 0; i < candidatesList.length; i++) {\n                voterInfo[msg.sender].ticketVotedForCandidate.push(0);\n            }\n        }\n        //require(voterInfo[msg.sender].ticketVotedForCandidate[index] < voteToSamePersonLimit);\n        voterInfo[msg.sender].ticketBalanced--;\n        candidateResult[_candidateName]++;\n        voterInfo[msg.sender].ticketVotedForCandidate[index]++;\n    }\n    \n    \n    // private function\n\n    /// @dev A function to calculate the highest tickets\n    function winCounts() public view returns (uint) {\n        uint counts = 0;\n        for (uint i = 0; i < candidatesList.length; i++) {\n            if (candidateResult[candidatesList[i]] > counts) {\n                counts = candidateResult[candidatesList[i]];\n            }\n        }\n        return counts;\n    }\n\n    /// @dev A function to get the winner and save it into winner array\n    function winCandidate() private {\n        uint counts = winCounts();\n        for (uint j = 0; j < candidatesList.length; j++) {\n            if (candidateResult[candidatesList[j]] == counts) {\n                winner.push(candidatesList[j]);\n            }\n        }\n    }    \n\n    /// @dev A function to return the index of the candidate\n    function _indexOfCandidate(bytes32 _candidateName) private view returns (uint) {\n        for (uint i = 0; i < candidatesList.length; i++) {\n            if (candidatesList[i] == _candidateName) {\n                return i;\n            }\n        }\n        return uint(-1);\n    }\n    \n    /// @dev A function to return the index of the voter\n    function _indexOfVoter(address _addr) private view returns (uint) {\n        for (uint i = 0; i < voterList.length; i++) {\n            if (voterList[i] == _addr) {\n                return i;\n            }\n        }\n        return uint(-1);\n    }\n    \n    \n}",
  "sourcePath": "/Users/linwh/Desktop/Block-chain/College_class/BallotSystem/contracts/Ballot.sol",
  "compiler": {
    "name": "solc",
    "version": "0.4.24+commit.e67f0147.Emscripten.clang"
  },
  "schemaVersion": "2.0.1",
  "updatedAt": "2018-12-26T12:57:43.828Z"
}